:020000040800F2
:10000000B009002001010008FD1300084F1000088E
:10001000F9130008F10B0008A71D000800000000FC
:100020000000000000000000000000009D19000812
:10003000A50D00080000000061190008F11A000871
:100040001701000817010008170100081701000830
:100050001701000817010008170100081701000820
:100060001701000817010008170100081701000810
:100070001701000817010008170100081701000800
:1000800017010008170100081701000817010008F0
:1000900017010008170100081701000817010008E0
:1000A00017010008170100081701000817010008D0
:1000B000291B0008451B000817010008170100084C
:1000C00017010008170100081701000817010008B0
:1000D0001701000817010008F91B0008291C000877
:1000E000170100081701000817010008DFF80CD0FD
:1000F00000F0F0FB0048004741480008B00900202C
:1001000005480047FEE7FEE7FEE7FEE7FEE7FEE7FD
:10011000FEE7FEE7FEE7FEE7ED00000840EA010328
:100120009B0703D009E008C9121F08C0042AFAD2AD
:1001300003E011F8013B00F8013B521EF9D2704771
:10014000D2B201E000F8012B491EFBD27047002219
:10015000F6E710B513460A4604461946FFF7F0FFC6
:10016000204610BDF0B480EA0102D40F4200B2EB89
:10017000410F02D20246084611464A0042D0C30D42
:10018000DDB2C1F3C752AD1A202D35DAC1F3160125
:1001900041F4000204B15242C5F1200602FA06F110
:1001A0002A411044B3EBD05F23D0C4B1012DA0EBA2
:1001B000C35009DCF0BC4FF0004202EAC352DBB28C
:1001C00000F5000000F0BABA400000F1807000EBCA
:1001D000C350A0F1807040EAD170490009E049089D
:1001E00041EAC071A0EBC35000F50000400800EBED
:1001F000C350F0BC00F099BA6142012202EB410108
:10020000001BF6E7F0BC704781F00041AAE780F0E0
:100210000040A7E780EA010210B502F00043400069
:1002200022D04A001FD0010E01EB1261C0F356002C
:10023000C2F3560240F4000042F40002A0FB022088
:1002400000047F39140400D0401C50EA124001D44D
:100250004000491EC2B20C0604EBD010401C4008FE
:10026000802A02D003E0002010BD20F00100002908
:1002700000DA0020184310BD30B480EA010202F019
:10028000004530F0004221F0004013D090B1C30D82
:10029000D40DC2F31601C0F31600E41A41F40001B4
:1002A00040F400027D34914201D3641C00E0490017
:1002B000002C02DA30BC002070474FF4000000230D
:1002C000914201D3891A034340084FEA4101F7D113
:1002D00051B1914202D14FF0004105E002D24FF0FE
:1002E000010101E06FF0010103EBC450284430BC70
:1002F00000F01BBA2DE9FE4F804681EA0300C00FD3
:100300000C46009021F0004123F00045B8EB0200BC
:10031000A94105D24046214690461C460B4602465E
:1003200023F00040104347D0270DC7F30A00C3F362
:100330000A510290401A019040286BDAC3F313006F
:1003400040F4801B0098924620B10023D2EB030AB0
:1003500063EB0B0B01985946C0F14002504600F088
:10036000B3F906460D4650465946019A00F0CBF9BE
:1003700010EB08006141002487EA115284EAE77318
:100380001A4340D0009A62B3019A012A4FEA0752F9
:1003900015DC001B61EB02014FF0004202EA07523C
:1003A000CDE90042001C41F5801132462B4600F099
:1003B00002FA03B0BDE8F08F40462146F9E7001B82
:1003C00061EB0201001C41F5801300185B4120180D
:1003D000A2F5001747EB030140EAD570B6196D414D
:1003E00011E06D084FEA360645EAC0754FEA07523C
:1003F000001B61EB0201001C41F5801149084FEA26
:1004000030000019514132462B4603B0BDE8F04F91
:1004100000F0C2B90098012240000023D0EB020294
:1004200063EBE073009821464FEAE074B8EB0000FC
:1004300061EB0401E9E783F000435BE781F00041F1
:1004400058E72DE9FE4F81EA030404F0004421F04F
:10045000004100944FF0000B23F0004350EA0104E8
:100460005ED052EA03045BD0C3F30A54C1F30A55C9
:100470002C44A4F2F3340194A0FB0254C1F3130101
:1004800041F48011C3F3130343F4801301FB0244CE
:1004900000FB034E840A970A44EA815447EA8357D3
:1004A000A4FB076802958D0A05FB07854FEA932C8C
:1004B00004FB0C542705029D4FEA065847EA1637FD
:1004C000B5EB08056EEB070C870E920E47EA811715
:1004D00042EA8312A7FB0201B6EB0B0164EB0004B6
:1004E0002B0D43EA0C335E1844EB1C50DA465146A0
:1004F000E7FB0201C5F313044FEA0B3343EA14533D
:100500004FEA0432019C43EA0603A4F10C0402946E
:10051000009CCDE900B400F04EF903B0BDE8F08FC7
:1005200000200146F9E72DE9F04D81EA030404F0CB
:10053000004B21F0004514464FF0000A23F0004123
:1005400050EA050220D054EA01021DD0C5F30A5733
:100550000246C5F31303C1F31300C1F30A5640F476
:10056000801543F48013A7EB0608101BD64608F24B
:10057000FD3873EB050002D308F1010801E0921881
:100580005B41B8F1000F03DA00200146BDE8F08DB1
:1005900000204FF48011064684460EE0171B73EBD3
:1005A000050705D3121B63EB050306434CEA010C58
:1005B00049084FEA300092185B4150EA0107EDD13B
:1005C00052EA030012D082EA040083EA05010843DC
:1005D00005D0101BAB4106D20122002306E0002209
:1005E0004FF0004302E06FF0010253101AEB0600D7
:1005F0004CEB085110EB0A0041EB0B01BDE8F04D4C
:1006000000F0CAB896230022114600F097B8C1F353
:100610000A5210B5C1F3130140F2FF3341F48011C7
:100620009A4201DA002010BD40F233439A42A2F20E
:10063000334203DC524200F056F810BD904010BD2A
:1006400000F0004230F000400AD0C10D01F56071A9
:10065000C0F3160042EA0151C20840071143704737
:100660000020014670472DE9F05F054600209246C4
:100670009B4688460646814640241BE02846414664
:100680004746224600F02FF853465A46C01A914179
:1006900010D311461846224600F016F82D1A67EBC3
:1006A00001084F4622460120002100F00DF817EB0B
:1006B00000094E41201EA4F10104DFDC484631460A
:1006C0002A464346BDE8F09F202A04DB203A00FA80
:1006D00002F1002070479140C2F1200320FA03F399
:1006E000194390407047202A04DB203A21FA02F097
:1006F0000021704721FA02F3D040C2F1200291405C
:10070000084319467047202A06DBCB17203A41FAE6
:1007100002F043EAE07306E041FA02F3D040C2F18E
:10072000200291400843194670470029A8BF70472E
:10073000401C490008BF20F00100704710B4B0FA17
:1007400080FC00FA0CF050EA010404BF10BC7047B2
:1007500049B1CCF1200421FA04F411FA0CF118BFCC
:10076000012121430843A3EB0C01CB1D4FEA00619B
:100770004FEA102042BF002010BC704700EBC3506E
:1007800010440029A4BF10BC7047401C490008BF9A
:1007900020F0010010BC704710B5141E73F1000466
:1007A00008DA401C41F1000192185B411A4301D163
:1007B00020F0010010BD2DE9F04D92469B4611B18D
:1007C000B1FA81F202E0B0FA80F220329046FFF7EF
:1007D0007BFF04460F4640EA0A0041EA0B015346FC
:1007E0005A46084313D0114653EA010019D0C8F104
:1007F00040025046FFF777FF05460E4650465946E1
:100800004246FFF761FF084305D0012004E020467F
:100810003946BDE8F08D0020054346EAE0762C43DA
:1008200037430A986305E40AA0EB08000022FD0A9A
:1008300044EA47540A3002D500200146E9E70105A1
:1008400010196941DDE9084500196941BDE8F04D1D
:10085000A2E770B521F0004303430CD0C1F30A5561
:100860000024D5EB040564EB0403D617AD1AB3419D
:1008700002DB0020014670BD201841EB025170BD23
:100880000EB5C10F80EAE0700844CA07002140F2AB
:1008900033438DE80E000A460B46FFF78CFF03B08A
:1008A00000BD000030B5041E71F1000404DB4FF000
:1008B0000044404264EB0101141E73F1000405DBA7
:1008C0001C464FF00043524263EB0403994208BFB9
:1008D000904230BD064C074D06E0E06840F0010351
:1008E00094E8070098471034AC42F6D3FFF702FCB7
:1008F000D87A0008F87A00082DE9F04D00231A464E
:100900001B1A8A4103DB00200146BDE8F08DC1F3CC
:100910000A52C1F3130141F480154FF0000BD107C7
:1009200002D100186D41521E0027044640F2FF110B
:10093000384601EB620A3E468046024600204FF4EC
:100940008011FFF7D0FEC2197141BB1846EB0100C0
:10095000B4EB030C75EB000C04D3E41A65EB000553
:1009600017460E46241908F101006D4180463428CF
:10097000E3DDF91946EB0600091BA84103D24FF04D
:10098000FF32134601E0002213461BEB070046EB43
:100990000A51BDE8F04DFFF7FFBE21B1826842F079
:1009A0000102826003E0826822F0010282607047E7
:1009B000014600208A6802F004020AB1012000E02A
:1009C000002070470146C86C80B270470246002084
:1009D00013680B400BB1012000E000207047014676
:1009E00000208A6802F008020AB1012000E000201D
:1009F0007047000070B504460D462B460122214683
:100A0000084800F039F80121064800F096F800BFC8
:100A100002210448FFF7DAFF0028F9D00148FFF768
:100A2000D1FF70BD0024014030B5024600200023F4
:100A300050680F4C20400D790C6844EA052420438F
:100A4000506090680B4C2040D1E902542C434D7902
:100A500044EA450420439060D06A20F470000C7C86
:100A6000641EE4B2234340EA0350D06230BD00006C
:100A7000FFFEF0FFFDF7F1FFF0B504460D46002044
:100A80000021092D11DDE068A5F10A0606EB4607F5
:100A9000072606FA07F18843A5F10A0606EB460683
:100AA00003FA06F10843E0600CE0206905EB450716
:100AB000072606FA07F1884305EB450603FA06F117
:100AC00008432061072A0FDA606B561E06EB860783
:100AD0001F2606FA07F18843561E06EB860605FA1E
:100AE00006F10843606322E00D2A0FDA206BD61F5F
:100AF00006EB86071F2606FA07F18843D61F06EB8A
:100B0000860605FA06F10843206310E0E06AA2F1C8
:100B10000D0606EB86071F2606FA07F18843A2F1A9
:100B20000D0606EB860605FA06F10843E062F0BD05
:100B3000816841F008018160704721B1826842F408
:100B4000A002826003E0826822F4A0028260704703
:100B5000816841F0040181607047000000B585B0F4
:100B60000121480200F00AFF4FF4004000F0FAFEB5
:100B70000020009003904FF46020029000208DF838
:100B800005008DF8040001208DF8100069460D481D
:100B9000FFF74AFF01210B48FFF7FFFE0948FFF767
:100BA000C7FF00BF0748FFF71AFF0128FAD0054822
:100BB000FFF7CEFF00BF0348FFF7FAFE0128FAD087
:100BC00005B000BD00240140064840780649497838
:100BD000884203DD01200549487102E000200349F5
:100BE0004871704768000020080000207C00002049
:100BF00000BFFEE710B50448007810B100F0F2FB2A
:100C000001E000F0E5FB10BD7C00002010B50024E1
:100C1000002000F029F804E0601CC4B2012001F0BB
:100C20000BFC4FF400610F4800F0FFF908B1642C91
:100C3000F2DB642C01DB012010BD002404E0601C09
:100C4000C4B2012001F0F8FB4FF40061054800F048
:100C5000ECF908B9642CF2DB642C01DB0120EBE732
:100C60000020E9E70008014038B5044654B14FF4CC
:100C70000060ADF8000003208DF8020010208DF810
:100C8000030006E04FF40060ADF8000004208DF88A
:100C900003006946014800F03DF938BD00080140F5
:100CA00010B5002404E0601CC4B2012001F0C4FBB4
:100CB0004FF40061104800F0B8F908B1642CF2DB81
:100CC000002404E0601CC4B2012001F0B5FB4FF425
:100CD0000061094800F0A9F908B9642CF2DB28206A
:100CE00001F0AAFB4FF40061034800F09EF908B13F
:100CF000012010BD0020FCE70008014070B5002471
:100D0000002506E06006040EFFF7CAFF0443681CD6
:100D1000C5B2082DF6DB204670BD7CB505460E46F3
:100D200000F028F8FFF772FFF8B9002405E0FFF79C
:100D3000E5FF0DF80400601CC4B2052CF7DB9DF83C
:100D400000009DF8011008449DF8021008449DF829
:100D5000031008449DF80410884208D19DF8000053
:100D600030709DF80200287001E001207CBD002059
:100D7000FCE7000010B50120FFF776FF4FF400619B
:100D8000074800F05BF9142001F038FB4FF40061D4
:100D9000034800F055F90D2001F04EFB10BD000096
:100DA00000080140704700000149C860704700001A
:100DB0000020024030B5044604254FF4302000F0F6
:100DC00096F80546042D17D10C48006940F0020042
:100DD0000A49086108464461006940F04000086122
:100DE0004FF4302000F083F805460448006941F6CE
:100DF000FD71084001490861284630BD00200240CD
:100E000004200B49C96801F0010109B101200EE07D
:100E10000749C96801F0040109B1022007E004494B
:100E2000C96801F0100109B1032000E004207047F7
:100E3000002002400348006940F080000149086139
:100E4000704700000020024070B504460D4604269D
:100E5000F00200F04CF80646042E11D10948006952
:100E600040F00100074908612580F00200F03FF8DA
:100E700006460448006941F6FE71084001490861D0
:100E8000304670BD002002400248034948600348D4
:100E9000486070472301674500200240AB89EFCDD1
:100EA0002DE9F04104460F4615461E46DDF8188030
:100EB000FFF7EAFF3520FFF777FF2046FFF77AFFBD
:100EC00039462046FFF7C0FF2946A01CFFF7BCFFAC
:100ED0003146201DFFF7B8FF4146A01DFFF7B4FFC4
:100EE0003520FFF761FFFFF7A5FFBDE8F08100B5F2
:100EF00002460423FFF784FF034603E0FFF780FF69
:100F00000346521E012B01D1002AF7D102B9052355
:100F1000184600BD2DE9F0410246002500260020BC
:100F200000230024002791F803C00CF00F0591F86E
:100F300003C00CF0100CBCF1000F03D091F802C0FC
:100F40004CEA050591F800C0BCF1000F31D01468DF
:100F500000202BE04FF0010C0CFA00F3B1F800C0B8
:100F60000CEA03069E4220D183004FF00F0C0CFACE
:100F700003F7BC4305FA03FC4CEA040491F803C0F0
:100F8000BCF1280F06D14FF0010C0CFA00FCC2F89E
:100F900014C00AE091F803C0BCF1480F05D14FF02E
:100FA000010C0CFA00FCC2F810C0401C0828D1D378
:100FB0001460B1F800C0BCF1FF0F34DD54680020AC
:100FC0002EE000F1080C4FF0010808FA0CF3B1F81C
:100FD00000C00CEA03069E4221D183004FF00F0CA3
:100FE0000CFA03F7BC4305FA03FC4CEA040491F83D
:100FF00003C0BCF1280F05D100F1080C08FA0CF869
:10100000C2F8148091F803C0BCF1480F07D100F179
:10101000080C4FF0010808FA0CF8C2F81080401CC8
:101020000828CED35460BDE8F081024600209368C2
:101030000B400BB1012000E0002070474161704778
:10104000016170470AB1016100E04161704700BF72
:10105000FEE7032000BF011EA0F10102D0B2FAD1C9
:101060007047000008B50121082000F087FC4820E7
:101070008DF803004FF47040ADF8000003208DF8A8
:10108000020069460148FFF745FF08BD000C01401A
:1010900010B54FF480517F48FFF7C7FFB8B100206B
:1010A0007D4908707D4908807D48007828B100207E
:1010B0007B49087001207B4908707B48007870B339
:1010C0000020794908700B207649087027E07248A3
:1010D0000078A0B971480088401C70490880084613
:1010E00000880A281BDD0020088001206C49087058
:1010F00000206D4908700120674908700FE06748BB
:101100000088401C6549088008460088B0F57A7F51
:1011100005DD0020624908700120634908704FF422
:1011200000515C48FFF781FFB8B100205F490870AB
:101130005F4908805F48007828B100205D49087049
:101140000220584908705C48007870B300205A4962
:10115000087002205349087027E054480078A0B96D
:1011600053480088401C52490880084600880A28D5
:101170001BDD0020088001204E49087000204E49E8
:1011800008700120494908700FE049480088401C58
:101190004749088008460088B0F57A7F05DD0020C1
:1011A000444908700120444908704FF4804139488F
:1011B000FFF73BFF28B100204049087040490880F4
:1011C0002DE03E48007888B93D480088401C3C49E5
:1011D0000880084600880A2821DD002008800320B6
:1011E0003049087001203549087018E034480088FB
:1011F000B0F5FA7F05DA32480088401C3049088093
:101200000DE030480088401C2E49088008460088C0
:10121000052804DD002008800320224908704FF4CF
:1012200000411C48FFF701FF28B100202649087043
:10123000264908802DE02448007888B92348008892
:10124000401C22490880084600880A2821DD002029
:10125000088004201349087001201B49087018E019
:101260001A480088B0F5FA7F05DA18480088401C53
:10127000164908800DE016480088401C1449088073
:1012800008460088052804DD002008800420054960
:10129000087010BD000C01401D0000201A00002045
:1012A0001C000020320000201E000020230000202F
:1012B0002000002022000020240000202B0000201D
:1012C0002600002028000020310000202C000020F3
:1012D0002E00002010B505210020FFF78BFB10BD6C
:1012E00070B50024002507E0FFF7F4FF0444052053
:1012F00001F084F8681CC5B20A2DF5DB0A20B4FBA6
:10130000F0F4A0B270BD00002DE9F84F4FF0000AD4
:10131000002000908346FFF7E3FF0446FFF772F9D1
:1013200082464FF08B415046FEF7A6FF0446164911
:10133000FEF770FF824651461348FEF765FF0546EB
:1013400029465046FEF798FF04461049FEF762FF13
:1013500000900098FFF774F906460D4A0D4B03F014
:1013600021FB044600220C4BFFF76BF88046FFF789
:101370004EF91FFA80FBBBF57A7F01DB40F2E73BB9
:101380005846BDE8F88F00003333534000401C46F8
:10139000BF7D1D386744E3BF0088E34008B50121E5
:1013A000082000F0EBFA10208DF803000120ADF8C2
:1013B000000003208DF8020069460448FFF7AAFDEB
:1013C00001210248FFF73AFE08BD0000000C014071
:1013D00010B5002201210248FFF734FE10BD0000C5
:1013E000000C014010B5012211460248FFF72AFE09
:1013F00010BD0000000C014000BFFEE77047000078
:1014000070B500240CE0002506E00020074901EB40
:10141000C5010855681CC5B2802DF6DB601CC4B23E
:10142000082CF0DB00F08EF870BD00008700002073
:10143000F0B514460B46CF1701EB5777C7F3C70239
:10144000CF1701EB5777FF10A1EBC707FEB20123BF
:10145000B340DDB24CB1134B03EBC0039B5C2B4399
:10146000104F07EBC007BB541AE00E4B03EBC00351
:101470009B5CDB430B4F07EBC007BB54094B03EBF3
:10148000C0039B5C2B43074F07EBC007BB54054BC6
:1014900003EBC0039B5CDB43024F07EBC007BB546D
:1014A000F0BD00008700002010B580210A48FFF73A
:1014B000C7FD40210848FFF7C3FDFFF7CAFD8021A3
:1014C0000548FFF7BBFDFFF7C4FD40210248FFF7C9
:1014D000B5FDFFF7BEFD10BD000C014010B5802129
:1014E0000648FFF7ABFD40210448FFF7A9FDFFF7D1
:1014F000B0FD80210148FFF7A3FD10BD000C0140A5
:1015000010B580210848FFF79BFDFFF7A2FD4021A1
:101510000548FFF795FDFFF79CFD40210248FFF7C6
:101520008DFDFFF796FD10BD000C014010B5024681
:10153000012000E050430B1EA1F10104E1B2F9D1FA
:1015400010BD000070B500242BE004F1B001C8B25A
:10155000002100F0BDF90021084600F0B9F9002192
:10156000102000F0B5F9FFF79FFF782000F01EF87B
:10157000FFF7C6FF402000F019F8FFF7C1FF002574
:1015800009E0094901EBC501085D00F00FF8FFF71C
:10159000B7FF681CC5B2802DF3DBFFF79FFF601C0F
:1015A000C4B2082CD1DB70BD8700002070B50446A2
:1015B00000251BE004F0800020B180210D48FFF7DA
:1015C0003FFD03E080210B48FFF738FDFFF741FDA9
:1015D00040210848FFF734FDFFF73BFD4021054857
:1015E000FFF72CFD6006040E681CC5B2082DE1DB78
:1015F00070BD0000000C01402DE9FE4F07468846F3
:1016000092461C460197CDF80080082C02D14FF07D
:1016100006091FE02046E31704EB5373DB10214655
:101620004FEAE47C04EB5C7C4FEAEC0CA4EBCC0CC2
:10163000BCF1000F02D04FF0010C01E04FF0000CA4
:101640006344224604EBD27C4FEA6C0C03FB0CF3A0
:1016500003F0FF09AAF12000C6B200255EE0082CC5
:1016600007D106EB4600304901EB400010F805B009
:101670001DE00C2C07D106EB46002C4901EB800045
:1016800010F805B013E0102C05D1294800EB061026
:1016900010F805B00BE0182C07D106EBC600254961
:1016A00001EB800010F805B001E0BDE8FE8F0020DE
:1016B00002901CE00BF0010028B1414638460C9A1C
:1016C000FFF7B6FE09E00C9808B9012000E0002001
:1016D000024641463846FFF7ABFE4FEA6B0B08F176
:1016E000010000F0FF080298401CC0B2029002986E
:1016F0000828DFDB781CC7B2082C0BD004EBD471B0
:101700004A100199791A8A4204D1019F0098083041
:10171000C0B20090DDF80080681CC5B24D459EDB6C
:10172000FFF710FF00BFC0E7345600085C58000800
:10173000D05C0008C06200082DE9FC4F07468846CF
:1017400016461C46BB46CDF804802046E21704EB43
:101750005272D2102146E31704EB5373DB10A4EB53
:10176000C3030BB1012300E000231A44624392B289
:101770000092002555E0102C05D12C4800EB4610B6
:1017800010F805A01BE0182C07D106EBC60028496D
:1017900001EBC00010F805A011E0202C05D1254870
:1017A00000EBC61010F805A009E0402C05D1224836
:1017B00000EB462010F805A001E0BDE8FC8F4FF0DB
:1017C00000091CE00AF0010028B1414638460B9A96
:1017D000FFF72EFE09E00B9808B9012000E0002079
:1017E000024641463846FFF723FE4FEA6A0A08F1EF
:1017F000010000F0FF0809F1010000F0FF09B9F154
:10180000080FDFDB781CC7B2A7EB0B00A04204D1A6
:101810005F4601980830C0B20190DDF80480681C72
:1018200085B200988542A6DB00BFC6E71C700008A1
:101830007C770008C4770008447800082DE9FF4F42
:1018400083B0064691461F46DDE9104A4FF0000B73
:10185000082C01D14FF0020B002532E0781B401E0E
:10186000C1B20A20FFF762FEB9FBF0F00A21B0FB1B
:10187000F1F201FB1208B8F1000F0FD104EBD471A3
:101880000BEB610101FB0561C8B223463022CDF8A4
:1018900000A002940499FFF7AFFE10E004EBD471AE
:1018A0000BEB610101FB0561C8B208F13001CAB25E
:1018B0002346CDF800A002940499FFF79DFE681C12
:1018C000C5B2BD42CADBFFF73DFE07B0BDE8F08FF1
:1018D00070B505460C46FFF7E7FD7820FFF766FE7A
:1018E000FFF70EFE1CB14020FFF760FE02E0002073
:1018F000FFF75CFEFFF704FE2846FFF757FEFFF7F1
:10190000FFFDFFF7EBFD70BD08B5012010230D2290
:10191000002100900846FFF70FFF012010230E2240
:10192000002100901846FFF707FF01201023002236
:10193000114600902020FFF7FFFE01201023022215
:10194000002100903020FFF7F7FE012010233A22FB
:10195000002100904020FFF74FFEFFF7F3FD08BD88
:101960007047000001460020034A506820F44040C0
:1019700008435060704700000010024029B1064A39
:1019800092690243044B9A6104E0034A92698243DC
:10199000014B9A6170470000001002407047000040
:1019A0001CB501201021CDE9001004484278022323
:1019B00000215A20FFF742FF1CBD000068000020F4
:1019C00010B50649481CFFF7A8F9FFF79DFC03492D
:1019D000488000F0E1F80149C88110BD680000208E
:1019E00010B500F001F810BD0CB50020019000907A
:1019F0003348006840F480303149086000BF304807
:101A0000006800F4003000900198401C019000989C
:101A100018B90198B0F5A06FF1D12948006800F419
:101A2000003010B10120009001E0002000900098EB
:101A3000012843D12348006840F010002149086084
:101A40000846006820F0030008600846006840F07F
:101A5000020008601A484068194948600846406812
:101A600048600846406840F4806048600846406826
:101A700020F47C1048600846406840F4E810486054
:101A80000846006840F08070086000BF0C4800689D
:101A900000F000700028F9D00948406820F00300E9
:101AA000074948600846406840F00200486000BFAF
:101AB0000348406800F00C000828F9D10CBD000074
:101AC0000010024000200240042808D14FF0E0211D
:101AD000096941F004014FF0E022116107E04FF085
:101AE000E021096921F004014FF0E0221161704703
:101AF0007047000010B50948006840F00100074930
:101B00000860084640680649084004494860FFF7F5
:101B100067FF4FF000600349086010BD00100240ED
:101B20000000FFF808ED00E010B50121880700F083
:101B30001CF828B1FFF7ACFA0121880700F012F871
:101B400010BD000010B50121054800F00EF828B1C5
:101B50000121034800F006F802F02AFA10BD000047
:101B600000040040CA430282704730B5024600209C
:101B700000230024158A05EA0103958905EA01047A
:101B800013B10CB1012000E0002030BD10B50521DB
:101B90000120FEF72FFF10BD2DE9F05F4FF0000A86
:101BA000002407E0FFF7F2FF8244052000F026FC46
:101BB000601CC4B20A2CF5DB0A20BAFBF0FA5046CE
:101BC000FEF720FD8346FEF73BFD0646074A084B1D
:101BD000FEF7A9FC04460022064BFEF72FFC8046C8
:101BE000FEF715FD80B2BDE8F09F00007B14AE4704
:101BF000E17A44400000594008B540F225510948B7
:101C000000F09EF868B140F22551064800F07CF8DB
:101C1000044800F0BFF8C0B200900121684602F00D
:101C200011F908BD0044004010B540F2255131487B
:101C300000F086F800285BD02E4800F0ABF8C4B264
:101C40002D48007820B1012817D002284AD127E07A
:101C50002C2C0CD129482A4909784454284800786A
:101C6000401C2749087001202349087004E0002027
:101C7000234908702049087034E020482049097839
:101C800044541F480078401C1D49087008460078DD
:101C9000062804DB0020087002201749087021E0A4
:101CA0001648007815494978084414498978084449
:101CB0001249C9780844114909790844C0B20F494A
:101CC0004979884208D100200B4908700C490870F6
:101CD00001200C49087004E00020094908700649F9
:101CE000087000BF00BF40F22551024800F00CF818
:101CF00010BD0000004800403F00002038000020D8
:101D0000400000203E00002010B50022002340F6D5
:101D10006A14A14200D100BF0A1201249440A3B268
:101D2000DC43048010BD02460020B1F5007F00D1E5
:101D300000BF13880B400BB1012000E0002070476A
:101D400070B50246002400230025002040F66A16E4
:101D5000B14200D100BFC1F3421501F01F030126BB
:101D600006FA03F3012D02D19689334006E0022DD5
:101D700002D1168A334001E0968A33400C120126C4
:101D800006FA04F41688344013B10CB1012000E0C7
:101D9000002070BD01468888C0F308007047C1F379
:101DA00008028280704700BFFEE700000FB4054BB9
:101DB00010B503A9044A029800F0A8F810BC5DF819
:101DC00014FB0000A92400085C000020490050EA30
:101DD000C12018BF04204A0D18BF40F0010040F296
:101DE000FF72B2EB515F08BF40F00200012808BF4C
:101DF000052070472DE9F0414F1E00EBC701044656
:101E0000D1E9000115461E4637F006020DD02A46DC
:101E10003346FEF716FB7F1E04EBC703D3E900230E
:101E2000FEF768FA37F00602F1D1022F25D0042F11
:101E300013D0062F18BFBDE8F0812A463346FEF7BF
:101E400000FBD4E90A23FEF755FA2A463346FEF78B
:101E5000F8FAD4E90823FEF74DFA2A463346FEF78E
:101E6000F0FAD4E90623FEF745FA2A463346FEF790
:101E7000E8FAD4E90423FEF73DFA2A463346FEF792
:101E8000E0FAD4E90223FEF735FA2A463346FEF794
:101E9000D8FAD4E90023BDE8F041FEF72BBA0000E0
:101EA0000022134610460149FEF73DBB0000F03FFB
:101EB000FEF720BA0022134610461146FEF733BB48
:101EC00040F2013200204FF0E041FEF7C2BC0000BA
:101ED000024A00201107FEF7BCBC000001FDFFFF15
:101EE00002E008C8121F08C1002AFAD170477047E3
:101EF000002001E001C1121F002AFBD17047000041
:101F00000149086070470000640000202DE9FF4F80
:101F10008DB00F460546002606E025280BD0DDE9EA
:101F20000F1290476D1C761C28780028F5D111B04F
:101F30003046BDE8F08F0024A246A1460122EC49BC
:101F400000E0044315F8013F203B02FA03F0084289
:101F5000F7D128782A2810D06FF02F022878A0F126
:101F60003001092914D80AEB8A0102EB410144F03F
:101F7000020400EB010A6D1CF0E701CF5FEA000AE2
:101F800003D544F40054CAF1000A44F002046D1C65
:101F900028782E2817D115F8010F44F004042A28B8
:101FA0000ED06FF02F022878A0F1300109290AD84D
:101FB00009EB890102EB410100EB01096D1CF2E71D
:101FC00057F8049B6D1C28786C280FD006DC4C2831
:101FD00017D068280DD06A2814D104E0742810D0D6
:101FE0007A280FD10DE044F400140AE044F4801480
:101FF00001E044F440146978814202D104F5801470
:102000006D1C6D1C2A786E2A1FD00CDC632A31D01F
:1020100004DC002A8BD0582A11D1A3E0642A68D0AE
:10202000692A0CD165E0732A2ED004DC6F2A73D0A4
:10203000702A04D19BE0752A6FD0782A6ED01046A2
:10204000DDE90F129047761C50E1C4F302500228DC
:1020500006D0032809D0042801CF09D0066045E145
:1020600001CFF117C0E9006140E101CF06803DE1F9
:1020700006703BE117F8040B8DF8000000208DF886
:102080000100EB46012003E057F804BB4FF0FF309E
:1020900061074FF0000102D40DE008F1010188460C
:1020A00049450FDA8045F8DB1BF808100029F4D108
:1020B00008E008F1010188468142FADB1BF80810AC
:1020C0000029F6D1DDE90F23AAEB0800814621465D
:1020D00000F036F9304400EB080604E0DDE90F12A9
:1020E0001BF8010B9047B8F10108F7D2214648468A
:1020F000F7E00A21C4F302534FF0000B0891022BC2
:1021000004D001CFC117032B09D00AE0FF1D27F02F
:102110000707F7E8020108E032E01FE020E000B224
:10212000C117042B01D140B2C117031E71F1000386
:1021300007DA4FF0000CD0EB0C006CEB01012D2303
:1021400002E0230504D52B238DF82430012303E07E
:10215000E30701D02023F7E7984658E00A2110E072
:1021600010210EE010204FF0000B08900CE0102121
:102170004FF0000B44F004044FF00809089103E00D
:1021800008214FF0000B0891C4F30253022B04D036
:1021900001CF0021032B06D006E0FF1D27F0070723
:1021A000F7E8020103E080B2042B00D1C0B24FF087
:1021B000000823072BD5702A07D0DDF820C08CF04B
:1021C000100C5CEA0B0C05D00EE040238DF8243097
:1021D000012308E050EA010306D030238DF82430B3
:1021E0008DF8252002239846DDF820C08CF0080CDD
:1021F0005CEA0B0C0BD150EA010301D1630706D551
:1022000030238DF824304FF00108A9F10109582A34
:1022100004D038A20B9208AA0A920BE03AA2F9E77E
:102220005B46089AFEF71FFA0B9B9B5C0A9A521EAC
:102230000A92137050EA0102F2D10A98ADEB000045
:1022400000F1200B600702D524F4803401E04FF048
:102250000109D94502DDA9EB0B0000E0002000EBED
:102260000B0141440890AAEB010AE00306D4DDE922
:102270000F232146504600F063F806444FF0000952
:1022800008E009A911F80900DDE90F12904709F1EA
:102290000109761CC145F4DBE0030CD5DDE90F2311
:1022A0002146504600F04CF8064404E0DDE90F12E8
:1022B00030209047761C0899481E08900029F5DCCC
:1022C00008E00A980A990078491C0A91DDE90F1282
:1022D0009047761CBBF10001ABF1010BF1DC21460C
:1022E0005046DDE90F2300F019F806446D1C1BE68B
:1022F00009280100303132333435363738396162DC
:10230000636465660000000030313233343536379F
:102310003839414243444546000000002DE9F04170
:10232000044600251E461746880404D405E03946B5
:102330002020B0476D1C641EF9D52846BDE8F08109
:102340002DE9F041044600251E469046C80301D5FC
:10235000302700E02027880404D505E041463846B0
:10236000B0476D1C641EF9D52846BDE8F0810246D1
:1023700000210020137803F0010303B1491C1378F6
:10238000C3F3400303B1491C1378C3F3800303B1C3
:10239000491C1378C3F3C00303B1491C1378C3F37A
:1023A000001303B1491C09B9002007E001F007033D
:1023B0000BB9C80802E0012303EBD100704700000D
:1023C00010B504466FF00400FFF77EFBE11704EB45
:1023D0005171C1F3C701074A11701046007800EB34
:1023E0004001C1EBC0104FF6FF7101EAC000024985
:1023F000088010BD340000203600002001460D4A40
:1024000012884A434FF0E0235A6100229A61012268
:102410001A6100BF4FF0E022106900F001021AB10A
:1024200000F48032002AF5D000224FF0E0231A6138
:102430009A6170473600002001460D4A12784A43DF
:102440004FF0E0235A6100229A6101221A6100BF15
:102450004FF0E022106900F001021AB100F480325E
:10246000002AF5D000224FF0E0231A619A617047EC
:102470003400002001B581B000200090694601AA17
:102480005078087010784870BDF800000CBD014607
:10249000080601F47F4240EA022001F47F0240EA8C
:1024A000122040EA1160704770B504460D46E1B253
:1024B0000548FFF774FC00BF0348008800F0800067
:1024C0000028F9D0204670BD0038014010B5002822
:1024D00021D0114B0022001F196803E0814203D86C
:1024E0000A4649680029F9D152B11368841A9C42FE
:1024F00004D1006818441060104602E0506000E00B
:10250000186039B102680B1A934203D10B681A4460
:1025100002604968416010BD60000020024612B1AF
:1025200002F0070028B9082901D8002070470120CF
:10253000FCE702F00700C0F10800884201D3002048
:10254000F4E70120F2E730B502460B4600210024F3
:1025500000250AB9481E30BD002108E0545C581A15
:10256000401E155C5554581A401E1454491CB1EBBA
:10257000530FF3D30020EEE72DE9F04104460D465A
:102580000027002604B135B983A0FFF70FFC4FF0F8
:10259000FF30BDE8F08100F0A3FC064628782178E2
:1025A00088420CD086A0FFF701FC8A4890F83E01D3
:1025B00020F00100401C874981F83E01012768781E
:1025C000617888420CD084A0FFF7F0FB814890F836
:1025D0003E0120F00200801C7E4981F83E01012767
:1025E000A878A17888420CD080A0FFF7DFFB79485B
:1025F00090F83E0120F00400001D764981F83E016C
:102600000127E878E17888420CD07DA0FFF7CEFB67
:10261000704890F83E0120F0080008306D4981F8BC
:102620003E0101276868616888420CD079A0FFF7F5
:10263000BDFB684890F83E0120F01000103065495D
:1026400081F83E0101276869616988420CD078A051
:10265000FFF7ACFB5F4890F83F0120F00100401C01
:102660005C4981F83F010127A869A16988420CD023
:1026700075A0FFF79BFB574890F83F0120F0020040
:10268000801C544981F83F010127E869E1698842CB
:102690000CD073A0FFF78AFB4E4890F83F0120F062
:1026A0000400001D4B4981F83F010127286A216A77
:1026B00088420CD06FA0FFF779FB464890F83F01A5
:1026C00020F008000830434981F83F010127A8683D
:1026D000A168884212D06C480068301AB0F57A7F41
:1026E0000CD36AA0FFF762FB3A4890F83E0120F055
:1026F00020002030374981F83E010127E868E16871
:10270000884212D060480068301AB0F57A7F0CD346
:1027100063A0FFF74BFB2F4890F83E0120F04000EC
:1027200040302C4981F83E010127286921698842FF
:1027300012D055480068301AB0F57A7F0CD35DA0EE
:10274000FFF734FB234890F83E0120F080008030F2
:10275000204981F83E010127686A616A884212D0E7
:1027600049480068301AB0F57A7F0CD356A0FFF7BD
:102770001DFB184890F83F0120F01000103015495B
:1027800081F83F010127012F03D100F0A9FB3E4949
:1027900008603846FDE6000067697A436865636B48
:1027A0005265706F7274204572726F72202C2049CE
:1027B0006C6C6567616C20506172616D0A0000008D
:1027C00076616C756566616E204368616E676564ED
:1027D0000A0000003005002076616C756562756D39
:1027E00070204368616E6765640A000076616C75ED
:1027F000656C6564204368616E6765640A0000006B
:1028000076616C75656D6F746F72204368616E6779
:1028100065640A0076616C7565636F6E74726F6CC7
:102820005F6D6F6465204368616E6765640A0000D0
:1028300076616C7565677A5F6D6178204368616E5B
:102840006765640A0000000076616C7565677A5FF1
:102850006D696E204368616E6765640A0000000060
:1028600076616C75657764204368616E6765640A9C
:102870000000000076616C756574727364204368B3
:10288000616E6765640A00004C00002076616C751B
:102890006574656D70204368616E6765640A000049
:1028A00076616C756568756D69204368616E6765F2
:1028B000640A000076616C75657473204368616E0C
:1028C0006765640A0000000076616C75656C757858
:1028D000204368616E6765640A0000002DE9FE43CD
:1028E00005460C4616464FF00009C8460027002052
:1028F0000090019002902888ADF800000DB104B15D
:1029000036B979A0FFF752FA4FF0FF30BDE8FE83E9
:1029100002216846FFF717FEB0F1FF3F05D17DA009
:10292000FFF744FA4FF0FF30F0E76846FFF71FFD6E
:10293000814609F1020007449DF8000000F0010003
:1029400098B111212278601C81542078401C20709D
:102950004B46AA1C0121404601F070FB08B1012042
:1029600000E00020307008F101089DF80000C0F37D
:10297000400098B112212278601C81542078401CBC
:1029800020704B46AA1C0121404601F057FB08B1BC
:10299000012000E00020707008F101089DF800009F
:1029A000C0F3800098B113212278601C81542078F4
:1029B000401C20704B46AA1C0121404601F03EFB02
:1029C00008B1012000E00020B07008F101089DF876
:1029D0000000C0F3C00098B114212278601C81541B
:1029E0002078401C20704B46AA1C0121404601F073
:1029F00025FB08B1012000E00020F07008F101087B
:102A00009DF80000C0F3001078B115212278601CF9
:102A100081542078401C20704B46AA1C012140465E
:102A200001F00CFB706008F101089DF8010000F056
:102A3000010088B116212278601C81542078401C46
:102A40002070E95D8DF806107F1C9DF8062000219E
:102A50000A2001F055FB70619DF80100C0F34000B1
:102A600088B117212278601C81542078401C207086
:102A7000E95D8DF807107F1C9DF8072000210A20D2
:102A800001F03EFBB0619DF80100C0F3800088B109
:102A900018212278601C81542078401C2070E95D48
:102AA0008DF808107F1C9DF808200021012001F0FE
:102AB00027FBF0619DF80100C0F3C00088B1192127
:102AC0002278601C81542078401C2070E95D8DF8CC
:102AD00009107F1C9DF809200021012001F010FB46
:102AE0003062002012E7000067697A446174615027
:102AF0006F696E74324576656E74204572726F72BE
:102B0000202C20496C6C6567616C20506172616D8E
:102B10000A00000067697A427974654F72646572D1
:102B200045786368616E6765204572726F720A004E
:102B30002DE9F04786B005460F4690464FF0000954
:102B40000026002400200090019002909148B0F8E7
:102B50003E01ADF8000002216846FFF7F4FCA41C1A
:102B600005B13FB98CA0FFF721F94FF0FF3006B057
:102B7000BDE8F087874890F83E0100F0010038B1C9
:102B80002B780DEB04020121304601F019FA761C76
:102B9000804890F83E01C0F3400038B16B780DEBEF
:102BA00004020121304601F00BFA761C794890F8B6
:102BB0003E01C0F3800038B1AB780DEB0402012177
:102BC000304601F0FDF9761C724890F83E01C0F3E2
:102BD000C00038B1EB780DEB04020121304601F062
:102BE000EFF9761C6B4890F83E01C0F3001080B1FD
:102BF0006868022805D374A0FFF7D8F84FF0FF30BB
:102C0000B5E76B680DEB04020121304601F0D8F9FD
:102C1000761C16B94FF0000908E006F0070010B95D
:102C20004FEAD60902E0012000EBD609B9F1010F05
:102C300004D90DEB04004946FFF785FC4C44554888
:102C400090F83E01C0F3401060B1AA680021012055
:102C500001F05CFAC0B28DF80D009DF80D100DF872
:102C60000410641C4B4890F83E01C0F3801060B122
:102C7000EA680021012001F049FAC0B28DF80E0087
:102C80009DF80E100DF80410641C424890F83E01A7
:102C9000C00960B12A690021012001F037FAC0B2F1
:102CA0008DF80F009DF80F100DF80410641C3948C2
:102CB00090F83F0100F0010060B16A6900210A202C
:102CC00001F024FAC0B28DF810009DF810100DF834
:102CD0000410641C2F4890F83F01C0F3400060B11D
:102CE000AA6900210A2001F011FAC0B28DF8110082
:102CF0009DF811100DF80410641C264890F83F014F
:102D0000C0F3800060B1EA690021012001F0FEF902
:102D1000C0B28DF812009DF812100DF80410641C5A
:102D20001C4890F83F01C0F3C00060B12A6A00213E
:102D3000012001F0EBF9C0B28DF813009DF81310DB
:102D40000DF80410641C134890F83F01C0F3001004
:102D500088B16A6A0021012001F0D8F91FFA80FACF
:102D60005046FFF787FBADF814000DEB0400BDF8EB
:102D700014100180A41C07480021A0F83E11C8F8D7
:102D8000004069463846D8F80020FDF7C7F9002012
:102D9000EDE600003005002067697A4461746150F7
:102DA0006F696E7473325265706F727444617461CE
:102DB000204572726F72202C20496C6C6567616CC3
:102DC00020506172616D0A005B4552524F525D2086
:102DD00076616C7565636F6E74726F6C5F6D6F6436
:102DE00065204572726F72202C20496C6C6567619A
:102DF0006C204F766572737465700A0070B5054675
:102E000000F06EF80446002625492846FFF7B4FB7B
:102E1000012817D123A0FEF7C9FF214A2C3AA2F1BD
:102E20000C012846FFF784FE38B9244800F5A0714C
:102E3000D0F84C21142001F03FF8282229461848E8
:102E4000FDF76CF91E48B4FBF0F100FB114018BB14
:102E50001C480068A0421FD01BA0FEF7A7FFFF225E
:102E600002210F483A38FDF76BF90D4A2C3AA2F1CE
:102E70000C012846FFF75CFE38B9104800F5A07138
:102E8000D0F84C21142001F017F8282229460448D4
:102E9000FDF744F90B4804603046FFF717FB70BD9F
:102EA000A80600206368616E6765642C20726570F7
:102EB0006F727420646174610A00000030050020A4
:102EC000C027090050000020496E666F3A20363056
:102ED0003053207265706F727420646174610A00EF
:102EE00001480068704700004400002010B51748F2
:102EF00090F88D00012827D1144890F88C00022802
:102F00001DDAFFF7EDFF1149D1F8CE10401AC8289D
:102F10001AD9FFF7E5FF04460C4890F88C30D0F83A
:102F2000CE2021460AA0FEF741FF00F0E3FE07484D
:102F300090F88C00401C054981F88C0004E0462183
:102F400002488C30FDF703F910BD00003005002069
:102F50005761726E696E673A67697A50726F746F03
:102F6000636F6C526573656E64446174612025649F
:102F70002025642025640A003EB50446002524B9B6
:102F800013A0FEF713FF681E3EBD20680090606826
:102F900001909DF80400401CC0B28DF8040005208B
:102FA000FFF768FAADF802000921684600F0E0FE7C
:102FB0008DF808000921684602F0D6FA0546002D72
:102FC00003DA29460DA0FEF7F1FE2846DCE70000F3
:102FD0004552523A2067697A50726F746F636F6C12
:102FE000436F6D6D6F6E41636B2064617461206926
:102FF0007320656D707479200A0000004552523AC2
:103000002075617274207772697465206572726FC1
:1030100072202564200A0000FEB504460E460025F5
:1030200024B914A0FEF7C2FE681EFEBD684600F07B
:10303000D3F912208DF8040060798DF80500062080
:10304000FFF718FAADF802008DF808600A2168460B
:1030500000F08EFE8DF809000A21684602F084FA1D
:103060000546002D03DA29460DA0FEF79FFE2846EF
:10307000DBE7000067697A50726F746F636F6C45AD
:1030800072726F72436D64204572726F72202C20D1
:10309000496C6C6567616C20506172616D0A00005B
:1030A0004552523A207561727420777269746520B6
:1030B0006572726F72202564200A000030B59DB0E1
:1030C000044600252CB926A0FEF770FE681E1DB030
:1030D00030BD684600F080F902208DF80400607968
:1030E0008DF805002AA103C9CDE902012BA103C96E
:1030F000CDE904012CA103C9CDE908012DA103C923
:10310000CDE9060100BF00BF0020CDF84A00CDF890
:103110004E009DF851008DF851009DF8510040F08F
:1031200002018DF851100020FFF7A4F9ADF8480016
:103130006F20FFF79FF9ADF802007321684600F099
:1031400017FE8DF872007321684602F00DFA0546ED
:10315000002D03DA29461AA0FEF728FE2846B6E716
:1031600067697A50726F746F636F6C4765744465FA
:1031700076696365496E666F204572726F72202CA6
:1031800020496C6C6567616C20506172616D0A004A
:1031900030303030303030340000000030303030EB
:1031A00030303032000000003033303330303030D7
:1031B000000000003033303130313030000000008A
:1031C0004552523A20756172742077726974652095
:1031D0006572726F72202564200A00002DE9FE4F8F
:1031E00080460E4617464FF0000B002002908146A5
:1031F0008246002534460090B8F1000F01D006B198
:1032000037B955A0FEF7D2FD4FF0FF30BDE8FE8F75
:10321000404602F0B3F81FFA80FABAF1000F02D16B
:103220004FF0FF30F2E74FF0000969E0012201A9F9
:10323000404602F0D5F88346BBF1000F5ED05248FD
:103240000078FF281FD19DF80400FF281BD14F48AC
:10325000007848B9FF202070607002204C49088037
:1032600001204A49087040E04948008804283CDDB4
:1032700047480088A84238D0FF20207060700220A4
:103280004349088031E040480078FF2803D19DF889
:103290000400552829D03D480078012825D19DF803
:1032A00004003B490988605439480088401C38496B
:1032B000088008460088042817DD0094009C608878
:1032C000FFF7D8F8001D85B23E2D01D2042D07DC92
:1032D00000202E4908702E4908802EA0FEF766FDBA
:1032E0002B480088A84200D10CE09DF80400264934
:1032F000087038480078401C3649087009F1010907
:10330000D14593DB00BF22480088042822DD2048F5
:103310000088A8421ED11E480188204600F028FDE2
:1033200002901B480088401E215C029881420AD10D
:103330003D8000201549087015490880254908700E
:103340001149087062E70020104908701049088090
:10335000801E5BE7012059E767697A50726F746FCE
:10336000636F6C4765744F6E655061636B65742065
:103370004572726F72202C20496C6C6567616C20FD
:10338000506172616D0A0000580000205400002056
:10339000560000204552523A746865206461746199
:1033A000206C656E67746820697320746F6F206C81
:1033B0006F6E67206F7220746F6F20736D616C6C1D
:1033C0002C2077696C6C206162616E646F6E200ADC
:1033D000000000005900002010B504462CB907A0D9
:1033E000FEF7E4FC4FF0FF3010BD0020206060606D
:1033F000FF20207060700020F6E700004552523A2E
:103400002067697A50726F746F636F6C486561648E
:10341000496E6974206865616420697320656D7008
:103420007479200A000000002DE9F04FA1B0064693
:103430008B461746994600202090824680460025FC
:1034400001ACBBF1000F06D131A0FEF7AFFC681E46
:1034500021B0BDE8F08FB9F1010F06D196F80880D0
:1034600008F10600384485B201E0781D85B22B468C
:10347000424639462CA0FEF799FCFF2004F8010BC8
:1034800004F8010B281204F8010B04F8015B3079F1
:10349000401C04F8010B707904F8010B002004F8BB
:1034A000010B04F8019B4FF0080AB9F1010F0DD18F
:1034B00004F8018B0AF1010A01A901EB0A00424656
:1034C00006F10901FCF72AFEC244444437B101A9C0
:1034D00001EB0A003A465946FCF720FE291D01A8D7
:1034E00000F046FC0146E81C01AA1154291D01A860
:1034F00002F03AF820902098002806DA14A02099CB
:10350000FEF754FC6FF00100A2E70020A0E70000E6
:103510005B4552525D202064617461204973204EE6
:10352000756C6C200A0000006C656E203D202564DF
:10353000202C20734469644C656E203D2025642056
:103540002C646174615F6C656E203D2025640A0007
:1035500075617274207772697465206572726F721A
:10356000202564200A0000002DE9F04780460C4623
:1035700017461D46089E94F800900CB105B136B967
:103580003AA0FEF713FC4FF0FF30BDE8F087B8F12A
:10359000000F69D11B214148FCF7D9FDB9F1050F96
:1035A00040D0B9F1110F03D0B9F1120F5AD110E088
:1035B0003BA0FEF7FBFB394A7E323849601CFFF71F
:1035C0008DF901203549D23908700025002030607E
:1035D00049E03CA0FEF7EAFB3048D238B4F80110CD
:1035E000A0F83E11022100F59F70FEF7ACFF2B4AB8
:1035F0007A32A2F10C0101F13800FFF799FA68B9AB
:103600002648D23800F5A071D0F84C21681CFCF790
:1036100085FD132028700D20306002E04FF0FF3050
:10362000B3E720E07A1E611C1C489338FCF776FD56
:10363000781E1A49D239C1F8800010211748D238B3
:1036400090F8D220D3308154D33890F8D200401C67
:103650001249D23981F8D2000320087000250020D9
:10366000306000E000BF00BF00208EE767697A503D
:10367000726F746F636F6C49737375656450726FAA
:1036800063657373204572726F72202C20496C6CD5
:103690006567616C20506172616D0A00020600204E
:1036A000414354494F4E5F454C4F4E474154455F4F
:1036B000434F4E54524F4C5F444556494345200AB0
:1036C00000000000414354494F4E5F454C4F4E4768
:1036D0004154455F524541445F4445565F53544110
:1036E000545553200A00000070B5044625462CB9F5
:1036F0000EA0FEF75BFB4FF0FF3070BD412205F1DD
:1037000008010E48FCF70AFD0F210D4890F823210F
:1037100000F5927081540A4890F82301401C084932
:1037200081F82301052008700020E6E74E54502060
:10373000697320656D707479200A0000E00600202E
:103740003005002010B504462CB9CAA0FEF72EFBA8
:103750004FF0FF3010BD2089FEF78CFE2081D1484C
:103760000078C0F38000217AC1F38001884256D0EE
:10377000207AC0F38000002829D0207A00F00100D0
:1037800078B10021C84890F8ED20EE308154EE3831
:1037900090F8ED00401CC44981F8ED00C3A0FEF78D
:1037A00005FB207AC0F34000002838D00121BE4834
:1037B00090F8ED20EE308154EE3890F8ED00401C8A
:1037C000B94981F8ED00C1A0FEF7F0FA27E0207AB0
:1037D00000F0010078B10021B34890F8ED20EE3000
:1037E0008154EE3890F8ED00401CAF4981F8ED00AF
:1037F000AEA0FEF7DBFA207AC0F3400078B10221D8
:10380000A94890F8ED20EE308154EE3890F8ED00A4
:10381000401CA54981F8ED00B3A0FEF7C7FAA14806
:103820000078C0F3C000217AC1F3C00188422CD0D7
:10383000207AC1089B48007861F3C3009949087059
:10384000207AC0F3C00080B10321974890F8ED20A2
:10385000EE308154EE3890F8ED00401C924981F82A
:10386000ED00A8A0FEF7A2FA0FE004218E4890F820
:10387000ED20EE308154EE3890F8ED00401C8A497E
:1038800081F8ED00A7A0FEF791FA86480078C0F312
:103890000010217AC1F3001188422CD0207A01094E
:1038A0008048007861F304107E490870207AC0F3E4
:1038B000001080B105217C4890F8ED20EE30815455
:1038C000EE3890F8ED00401C774981F8ED009DA09E
:1038D000FEF76CFA0FE00621734890F8ED20EE3009
:1038E0008154EE3890F8ED00401C6F4981F8ED00EE
:1038F0009CA0FEF75BFA6B480078C0F34010217A79
:10390000C1F3401188422CD0207A410965480078E3
:1039100061F3451063490870207AC0F3401080B10C
:103920000721614890F8ED20EE308154EE3890F890
:10393000ED00401C5C4981F8ED0093A0FEF736FADB
:103940000FE00821584890F8ED20EE308154EE3811
:1039500090F8ED00401C544981F8ED0091A0FEF76D
:1039600025FA50484078C0F3C001607AC0F3C00027
:1039700081422CD0607AC1084A48407861F3C30084
:1039800048494870607AC0F3C00080B10B214648B6
:1039900090F8ED20EE308154EE3890F8ED00401CA8
:1039A000414981F8ED0087A0FEF700FA0FE00C21F5
:1039B0003D4890F8ED20EE308154EE3890F8ED005F
:1039C000401C394981F8ED0085A0FEF7EFF9354834
:1039D0004078C0F30011607AC0F3001081422CD00F
:1039E000607A01092F48407861F304102D4948702E
:1039F000607AC0F3001080B109212B4890F8ED20C7
:103A0000EE308154EE3890F8ED00401C264981F8E4
:103A1000ED007BA0FEF7CAF90FE00A21224890F8DA
:103A2000ED20EE308154EE3890F8ED00401C1E4938
:103A300081F8ED0079A0FEF7B9F90D211A4890F848
:103A4000ED20EE308154EE3890F8ED00401C164920
:103A500081F8ED00607A00F0070081F8A0010846C7
:103A600090F8A01174A0FEF7A1F902200E49087089
:103A700000206FE667697A50726F746F636F6C4DE8
:103A80006F64756C65537461747573204572726FE1
:103A900072202C20496C6C6567616C2050617261EA
:103AA0006D0A00005A000020300500204F6E426F62
:103AB000617264696E673A20536F66744150206F7B
:103AC0007220576562206D6F64650A004F6E426F09
:103AD000617264696E673A204169724C696E6B204D
:103AE0006D6F64650A0000004F6E426F6172646919
:103AF0006E673A2053746174696F6E206D6F6465F0
:103B00000A00000057694669207374617475733A3E
:103B100020696E2062696E64696E67206D6F6465EE
:103B20000A00000057694669207374617475733A1E
:103B3000206F75742062696E64696E67206D6F64B2
:103B4000650A000057694669207374617475733A99
:103B500020636F6E6E656374656420726F75746543
:103B6000720A000057694669207374617475733A6C
:103B700020646973636F6E6E656374656420726F31
:103B8000757465720A000000576946692073746194
:103B90007475733A20636F6E6E6563746564206D2F
:103BA000326D0A0057694669207374617475733AFF
:103BB00020646973636F6E6E6563746564206D3233
:103BC0006D0A000057694669207374617475733A11
:103BD0002061707020636F6E6E6563740A00000070
:103BE00057694669207374617475733A206E6F204B
:103BF00061707020636F6E6E6563740A0000000070
:103C000057694669207374617475733A20696E2030
:103C100074657374206D6F64650A000057694669A6
:103C2000207374617475733A206F757420746573B2
:103C300074206D6F64650A005253534920697320E4
:103C40002564200A0000000070B5044625462CB902
:103C50001AA0FEF7ABF84FF0FF3070BD1C48A96802
:103C60004162A9890185A97B80F82A10A0F5C0705E
:103C7000D5F80F10C0F8AC110146B1F8A401FEF759
:103C8000F9FB1449A1F8A401D1F8AC01FEF7FFFB40
:103C90001049C1F8AC010E210E4890F8082100F23D
:103CA000091081540B4890F80801401C094981F81B
:103CB0000801042008700020CFE700004552523A66
:103CC000204E545020697320656D707479200A006D
:103CD000B00600203005002010B5FFF701F90446BA
:103CE00000BFFFF7FDF8001BB0F5167FF9D900F013
:103CF00041FE10BD10B500240E4890F88D0000B9AB
:103D000010BD0DA0FEF752F80A48B0F8CC108E3066
:103D100001F02AFC04460748B0F8CC00A04202D0CB
:103D20000DA0FEF743F8FFF7DBF80249C1F8CE001B
:103D300000BFE5E7300500205761726E696E673A93
:103D40002074696D656F75742C20726573656E647F
:103D50002064617461200A004552523A20726573F2
:103D6000656E642064617461206572726F720A000E
:103D700010B502460024002302B109B9002010BD8D
:103D8000022303E0D05C2044C4B25B1C481E98426E
:103D9000F8D82046F3E7000070B504460D462CB96C
:103DA0000FA0FEF703F84FF0FF3070BD4621124818
:103DB000FCF7CDF92A4621460F48801CFCF7AEF9E6
:103DC0000D488C38A0F8CC50012180F88D10FFF7F9
:103DD00087F809498C39C1F8CE000020E5E70000DA
:103DE0004552523A206461746120697320656D7098
:103DF0007479200A00000000BC05002070B504465C
:103E0000094D2CB909A0FDF7D1FF4FF0FF3070BD6F
:103E10002879401C2179884204D146210248801E1D
:103E2000FCF795F90020F2E7BE0500204552523A12
:103E3000206461746120697320656D707479200A53
:103E40000000000070B504460D46002624B90AA003
:103E5000FDF7ACFF701E70BD2A4621460E4801F0EA
:103E600010FB0646AE4205D00CA0FDF79FFF4FF0B9
:103E7000FF30F0E73046EEE74552523A2067697A64
:103E800050757444617461206275662069732065A1
:103E90006D707479200A0000240700204552523AC0
:103EA000204661696C656420746F20726257726984
:103EB0007465200A000000002DE9F04391B0064629
:103EC0000F4690464FF0000901AC08F1060085B29C
:103ED0003FB925A0FDF76AFF4FF0FF3011B0BDE8F4
:103EE000F083FF2004F8010B04F8010B281204F8FA
:103EF000010B04F8015B052004F8010B244890F83D
:103F00008410D0F88400401C214AC2F8840004F8D0
:103F1000011B002004F8010B04F8010B04F8016BED
:103F2000424639460DF10D00FCF7F8F8291D01A8AD
:103F3000FFF71EFF0146E81C01AA1154291D01A824
:103F400001F012FB8146B9F1000F06DA494611A0D3
:103F5000FDF72CFF6FF00100C0E7291D01A8FFF756
:103F60001BFF0020BAE7000067697A5265706F7224
:103F70007444617461204572726F72202C20496C08
:103F80006C6567616C20506172616D0A0000000011
:103F9000300500204552523A2075617274207772C4
:103FA000697465206572726F72202564200A0000B2
:103FB00002480068401C0149086070474400002026
:103FC0002DE9F0470546884614461E464FF0000985
:103FD000CA460027002314B9581EBDE8F087EB0835
:103FE00041462846FEF79AFA07463FB9E05C05F0DD
:103FF000070106FA01F10843E0541DE0012F1BD12F
:10400000F0B205F00701C1F1080140FA01F905F02D
:104010000700C0F10801FF20084100EA060A581C09
:10402000205C40EA0900591C6054E05C05F007017F
:104030000AFA01F10843E0540020CEE72DE9F04FE1
:104040008FB004460F4690461D460026B246B14644
:10405000B34600200E90B8F1000F00D025B94FF004
:10406000FF300FB0BDE8F08F4FEAD4092A46414631
:1040700001A8FCF753F8012D09D9294601A8FEF73C
:1040800062FAB0F1FF3F02D14FF0FF30E9E7394665
:104090002046FEF743FA8246BAF1000F0CD101A880
:1040A00010F8090004F007010841C7F10802FF21D8
:1040B00011410840064321E0BAF1010F1ED101A9C8
:1040C00009F10100085C04F00701C1F10801791A47
:1040D000C1F10802FF21114100EA010B01A810F80B
:1040E000090004F0070108410E9004F00700C0F138
:1040F00008010BFA01F006430E9806433046B0E77C
:1041000010B50346002002FB031010BD10B5034696
:104110000020541AB4FBF3F010BD00002DE9FF5F3E
:1041200007460E4693464FF000083446B1463546E2
:10413000B24607B126B94FF0FF3004B0BDE8F09F9A
:104140004FF0000831E1781C10F808001A2870D2EE
:10415000DFE800F0F9FAFB6F6FFCFDFEFF6F6F6F99
:104160006FF1F0EFEE0D2E4F7091AEBECEDE2078E7
:10417000914908700846017890A0FDF717FE8E4817
:104180000078012809D19248006801280FD191498F
:10419000487102209049087009E08D4800680128A4
:1041A00005D100208B49487102208B490870F7E047
:1041B0006078814948700846417888A0FDF7F6FD8F
:1041C0007D484078012809D18148006801280FD135
:1041D0008049C87103208049087009E07C48006864
:1041E000012805D100207B49C87103207A49087055
:1041F000D6E0A07870498870084681787DA0FDF7E8
:10420000D5FD6D488078012808D1714800680128E3
:104210000ED1704908707049087009E06C48006858
:10422000012805D100206B49087001206A490870F7
:10423000B6E0B4E0E0786049C8700846C17872A082
:10424000FDF7B4FD5C48C078012809D160480068DA
:1042500001280FD15F49C87004205F49087009E048
:104260005B480068012805D100205A49C870042025
:104270005949087094E060684F49486008464168B1
:1042800067A0FDF793FD4C48406810B101280CD1A0
:1042900005E000204E490860FDF7B2F806E0012075
:1042A0004B490860FDF7ACF800E000BF00BF77E0C5
:1042B0006069414948610846416960A0FDF776FDA3
:1042C0000120644908703C48808A6349888067E01F
:1042D000A069394988610846816960A0FDF766FDDB
:1042E00001205C4908703448008B5B49C88057E066
:1042F000E0693149C8610846C1695EA0FDF756FD15
:104300000120544908702C48007F5349487047E009
:10431000206A294908620846016A5BA0FDF746FD4C
:1043200001204C4908702448008C4B49488037E0F4
:1043300016E028E018E00DE00BE009E007E005E0FA
:1043400003E001E0FFE72BE02AE029E028E027E096
:1043500026E025E099F8001050A0FDF727FD1FE0AA
:1043600051A0FDF723FD1BE0A9796A792B79A86894
:10437000CDE90032CDE90210EB78AA7829884FA068
:10438000FDF714FD0CE058A0FDF710FD5BA0FDF754
:104390000DFD9AF800105DA0FDF708FD00E000BFDC
:1043A00000BF08F1010000F0FF08387840453FF7F2
:1043B000CAAE0020C1E60000070500204576743A29
:1043C000204556454E545F66616E202564200A00E4
:1043D000100000207C000020150000204576743A73
:1043E000204556454E545F62756D70202564200A45
:1043F000000000004576743A204556454E545F6CE7
:104400006564202564200A004576743A20455645A7
:104410004E545F6D6F746F72202564200A00000097
:104420004576743A204556454E545F636F6E7472FC
:104430006F6C5F6D6F64652025640A004576743A81
:104440004556454E545F677A5F6D61782025640A52
:104450000000000048000020080000204576743A63
:104460004556454E545F677A5F6D696E2025640A34
:10447000000000004576743A4556454E545F776417
:104480002025640A000000004576743A4556454EE2
:10449000545F747273642025640A000052535349B8
:1044A0002025640A000000005452414E53504152EE
:1044B000454E545F44415441200A00005749464943
:1044C0005F4E5450203A205B25642D25642D2564D1
:1044D00020253032643A253032643A253032645D2A
:1044E0005B25645D200A00004D4F44554C45204932
:1044F0004E464F202E2E2E0A00000000574946201F
:104500004D4F44554C45202E2E2E0A006D6F64757C
:104510006C6554797065203A205B25645D200A0043
:104520002DE9F041A2B0054600260020029001903E
:1045300000248046002735B982A0FDF737FC601EB5
:1045400022B0BDE8F081FEF7D1FC02AA8749884875
:10455000FEF744FE0646002E71D186A0FDF726FC2C
:10456000824C20790F284FD00ADC0E2873D2DFE866
:1045700000F07216721A7272433872724472453CBD
:10458000182852D006DC112847D0142846D0162807
:1045900061D134E0222854D02A285CD130E0204672
:1045A000FEF78CFD5FE0E279A17977A0FDF7FEFBD5
:1045B00001A8009007F10900BDF808301A1A6B48ED
:1045C0000830C11903AB4046FEF7CEFF40B9E3798E
:1045D00003A92046019AFEF727FF6FA0FDF7E6FB2F
:1045E00041E02046FEF7C8FC3DE02046FEF7C4FC53
:1045F0002046FFF7A7F836E000BF00BF00BF00BFAE
:104600002046FFF7FBFB2EE02046FEF7B5FC65A039
:10461000FDF7CCFBFFF760FB25E024E02046FFF729
:10462000EDFB65A0FDF7C2FB1DE02046FFF7E6FBB2
:104630002046FFF709FB68A0FDF7B8FB13E013E085
:1046400009E02046FFF7DAFB2046FFF74DF868A0A7
:10465000FDF7ACFB07E002212046FEF7DDFC6BA076
:10466000FDF7A4FB00BF0DE016F1020F0AD13F4C8D
:1046700001212046FEF7D0FC6AA0FDF797FB6FF002
:1046800001005DE73948401E0078062853D2DFE874
:1046900000F052031425314100203449491E0870AE
:1046A000282201F5A871A1F17E00FFF737FD1B213B
:1046B0002E48D130FBF74BFD3EE000202B49491E30
:1046C0000870012201F5D071A1F1B300FFF726FDBA
:1046D0001B212648EC30FBF73AFD2DE00020234952
:1046E000491E087008463F31D0F88020D230FFF7CD
:1046F00015FD21E000201D49491E08700C2201F51E
:10470000D271A1F19C00FFF709FD1B214B48FBF77B
:104710001EFD11E000201549491E0870412201F5D7
:10472000D871A1F18D00FFF7F9FC412143481B30FE
:10473000FBF70DFD00E000BF00BF2846FEF75EFB63
:104740000020FDE647697A7769747348616E646C8E
:1047500065204572726F72202C20496C6C65676110
:104760006C20506172616D0A00000000310500206C
:1047700024070020476574204F6E65205061636BED
:104780006574210A00000000666C616720257820AE
:104790002578200A0000000041636B4461746120A9
:1047A0003A200A007265706F72743A4D4355207258
:1047B00065626F6F74210A0041636B2050524F4451
:1047C000554354494F4E5F4D4F44452073756363C5
:1047D000657373200A00000041636B204745545FF6
:1047E0005554542073756363657373200A00000089
:1047F00041636B204745545F4D6F64756C65207352
:10480000756363657373200A000000004552523AD5
:1048100020636D6420636F6465206572726F72211E
:104820000A0000004552523A20636865636B2073AA
:10483000756D206572726F72210A000038060020C3
:1048400008B5FDF757F94820FDF7BAFDFCF786F9E2
:10485000FCF7A4FDFCF7C6FDFCF704FCFCF7D0FD5B
:1048600073E000BF39488088394948613748C088BB
:10487000886136484078C86134484088086200BF83
:10488000FDF79EF800F09CFE3148FFF749FE3148E5
:10489000006820B1012828D0022844D128E0FDF783
:1048A00033F8FDF77DF8FCF78FF92B4800780128E5
:1048B00009D10020284908700120264908602749AD
:1048C0000870FCF79DFD244800780B280AD10020D1
:1048D0002149087002201F49086001202049087002
:1048E000FCF78EFDFCF786F91EE0FCF783F91BE070
:1048F00019480078012815D1002017490870194976
:10490000887214490860012017490870FCF778FD87
:104910000E48408800900D48C3888288417813482B
:10492000FCF7BEFA00E000BF00BF1148007860B19C
:1049300000200F4908700548408800900348C3884C
:10494000828841780948FCF7ABFA8AE70800002022
:104950000705002010000020320000201500002074
:10496000160000207C0000201400002000F0010848
:1049700048000020012080F3138800BF00BF0748D3
:10498000006800F4E06006490843001D0349086020
:10499000BFF34F8F00BF00BFFEE700000CED00E04B
:1049A0000000FA052DE9F04D1D460C4698B017465B
:1049B00021F0004123F00043002814BF4FF0010C08
:1049C0004FF0000C0CEB440CFE4A0CEB02064FEAD5
:1049D000620C66452BD33E0018BF012606EB450648
:1049E0001644F94A964222D3F84A53EA070C02D0F9
:1049F000944205D148B918B000201146BDE8F08DA9
:104A0000002808BF4FF0000C01D04FF0010C0CEB58
:104A1000440212F5001F0AD8002F14BF4FF0010CFA
:104A20004FF0000C0CEB450212F5001F07D918B02F
:104A30003A462B462146BDE8F04DFDF739BA002233
:104A4000DFF88CA3002CB8BF534526DADFF884C307
:104A50006345A8BF022220DADFF870C39C451CDC46
:104A6000DFF874C30CEB235CBCF1140F08DDCCF150
:104A7000340627FA06FC0CFA06F6BE420DD108E011
:104A80005FB9CCF1140623FA06FC0CFA06F69E4236
:104A900003D10CF00102C2F1020251EA000C19D15B
:104AA000002D17DA002C18BF022A01D0012A07D0E6
:104AB0000220FDF725FA18B0BDE8F04DFDF7F0B97A
:104AC0000220FDF71DFAFDF7EBF918B081F0004167
:104AD000BDE8F08DB7F1000C6CD1534525D104F140
:104AE000804212F5801201BF00280020B74918B09B
:104AF00008BFBDE8F08DB548884207DC002DA1BF96
:104B00006046294618B0BDE8F08D07E0281E05DA9A
:104B100080F0004118B06046BDE8F08DAF4979449F
:104B2000D1E9000118B0BDE8F08DDFF8A0C26345FF
:104B300025D1002D1FDA19B1514512D1D8B909E09C
:104B4000002840F0EC82A24A214618B062F31E0110
:104B5000BDE8F08D0020214618B060F31E01BDE8CD
:104B6000F08D08DA18B02346BDE8F04D024600206B
:104B70006146FBF7D8BC18B02146BDE8F08D514521
:104B800018DAB5F1804F0DD0A5F1005CBCF1FF5CE7
:104B900010D1B4F1000C0DDB18B06146BDE8F04D4A
:104BA00000F0BCBC234618B00246BDE8F04D1946E3
:104BB000FBF747BC060024F0004C3BD1D9B151456E
:104BC00033D1002C06DD002DA1BF0020514618B0C6
:104BD000BDE8F08D002C01DD002D1BDB002C13DA6D
:104BE000002D11DB012A4FF0000014BF78497C49E9
:104BF00018B0BDE8F08D022A18BF002C0AD0012A97
:104C000008D1002C06DA0AE0002CB8BF002D11DA1A
:104C1000012A04D0002018B00146BDE8F08D18B07C
:104C200000204FF00041BDE8F08DA1F14050B0F1FF
:104C30007F601AD0012000EBE47050EA020421D01A
:104C4000624C521E4FF0000B104304BF4FF0000B9C
:104C5000644C654883427CDD644A654893421FDDAD
:104C6000884217DB002D25DB37E0002C00DA4AB143
:104C7000022A0CBF01204FF0FF3018B0BDE8F04D04
:104C8000FBF7FEBD0120FDF73BF918B0BDE8F04D84
:104C9000FDF710B94D4A8A4202DC002D0ADC1CE007
:104CA000814202DA002D18DA04E0484B994220DDF7
:104CB000002D12DD0220FDF723F9FDF701F905466D
:104CC0000E460022534658462146FBF7BAFB18B061
:104CD00066F31E012846BDE8F08D0220FDF710F9AD
:104CE000FDF7F6F80A46214618B062F31E01BDE84A
:104CF000F08D002230466146FBF79DFB80460E4654
:104D00006FF00102FBF7A5FD4FF05532394BFBF771
:104D100095FB42463346FBF794FB0022364BFBF7EC
:104D20008DFB824642463346049110461946FBF7F6
:104D300088FB5246049BFBF784FB8A4600904FF0A9
:104D4000C0422E4B40463146FBF77BFB2C4A2B4B97
:104D500000E027E0CDE9060151460098FBF771FB22
:104D600082460191274A284B40463146FBF769FBB2
:104D70005246019BFBF75FFB82460B4602460591BC
:104D8000DDE90601FBF7B6FADDE9062300268846D1
:104D90003046FBF750FB5246059BFBF74FFB0246A4
:104DA00000F07EB90020B1F5801F07DA35223046C9
:104DB0006146FBF74EFD06466FF0340000EB2150D4
:104DC00024E00000FFFF1F00FFFF0F000000F03F86
:104DD0000000F07F0000404301FCFFFFAE2F000009
:104DE0000000F0FF0000F0BF0000E0410000F043D1
:104DF000FFFFEF3F5555D53F0000E03F4715F73F18
:104E0000FE822B6544DF5DF80BAE543EA0F2FF300E
:104E10000190C1F3130040F07F6141F040510291D5
:104E2000FE498842D8BF002004DDFD498142C8BF49
:104E3000012001DD0D9008E000200D900198401C3C
:104E400001900298A0F5801002900299F5487844EC
:104E50000B910D9900EBC100D0E900230F93304670
:104E60000A920B99FBF7E7FACDE90601DDE90A2181
:104E700030460F9BFBF73EFA02460B460020EA49FC
:104E8000FBF751FB059102460B460090DDE9060158
:104E9000FBF7D7FA1490E5488A464FF000087844AB
:104EA0000299006812904FF0005040EA61010D989D
:104EB0000F9B01EB804000F5002109910A9A12989E
:104EC000FBF7B9FA32460B9BFBF7B8FA424653465A
:104ED000FBF7B7FA0646029140465146099B129AE3
:104EE000FBF7AFFADDE90623FBF7A8FA3246029B8F
:104EF000FBF7A1FA059B009AFBF7A3FA0091149A1D
:104F00000490534610461946FBF79BFA06460246A4
:104F1000C7480B46029106217844FCF76BFFCDE9A8
:104F20000510029B324610461946FBF78AFADDE966
:104F30000532FBF786FA0591064653464046194668
:104F4000149AFBF7D7F9009B049AFBF77AFA3246DA
:104F5000059BFBF7CFF9CDE90510424653461046B5
:104F60001946FBF76EFA0022B24B02910A90FBF74A
:104F7000C1F9DDE90532FBF7BDF90E464246AD4BFE
:104F80004046FBF758FA029B0A9AFBF754FADDE910
:104F90000532FBF753FA424602910A903346104617
:104FA0005146FBF74EFACDE906015346149A029991
:104FB0000A98FBF746FA8A46029033464246009921
:104FC0000498FBF73EFA5346029AFBF793F98246A0
:104FD0000B4602460591DDE90601FBF78BF9DDE999
:104FE0000623002088460646FBF725FA5246059B15
:104FF000FBF724FA824609914FF060428E4B30460F
:105000004146FBF71EFA049006918C4A8A4B5046A3
:105010000999FBF716FA82460291894A894B304674
:105020004146FBF70EFA5246029BFBF763F9864BAB
:105030007B440D9A03EBC203D3E90023FBF75AF933
:105040000E9007910198FBF71BFC0591DDE9061313
:1050500082460E9A0498FBF74DF97C4A7A440D9BE0
:1050600002EBC303D3E9002300930292FBF742F95A
:105070005246059BFBF73EF90026884652463046CD
:10508000059BFBF7D8F9009B029AFBF7D4F9069B26
:10509000049AFBF7D0F9079B0E9AFBF7CFF902466B
:1050A00000200B46029038462946FBF7CAF9824693
:1050B00001912B4638461946029AFBF7BCF9324655
:1050C0004346FBF7BEF95246019BFBF713F907462F
:1050D0008A463246434629460298FBF7B2F905460E
:1050E0000E463A465346FBF705F9594A884691421F
:1050F00021DBA8EB020353EA000210D12A46334613
:10510000FBF799F9CDE90401524A534B3846514611
:10511000FBF7F0F8DDE90423FBF7C4FB21D2022002
:10512000FCF7EEFEFCF7CCFE0A46214618B062F30F
:105130001E01BDE8F08D494B28F000429A4210D381
:10514000474A08EB020353EA00027FF4C6AD2A4641
:105150003346FBF770F93A465346FBF7A3FB7FF65D
:10516000BCAD0022019228F000403E493E4A01EBCE
:105170002051824223DA481C4FF4801121FA00F0BA
:1051800040443A4AC0F30A517A44394BA1F2FF3104
:10519000CB4020EA0303C0F3130040F48010C1F1B8
:1051A0001401C84012680190B8F1000FBCBF404222
:1051B000019028463146FBF73EF905460E462A4641
:1051C000334638465146FBF795F84FF00008424603
:1051D000284B40460591FBF734F9CDE90601264AF4
:1051E000264B40460599FBF72CF9009102902A4680
:1051F000334640460599FBF71EF93A465346FBF7FE
:105200001DF91F4A1F4BFBF71CF9009B029AFBF785
:1052100071F80746884602460B4635E08E98030033
:105220007AB60B00F62B00000000F03F2E2C000099
:105230005C2B00000000084009C7EE3FFD033ADC8C
:10524000F5015B14E02F3EBE342A0000F82900006F
:1052500000009040FE822B654715973C00CC9040A3
:1052600000346F3F01FCFFFF0000E03F44290000D5
:10527000FFFF0F00432EE63F396CA80C615C20BE97
:10528000EF39FAFE422EE63FDDE90601FBF732F880
:10529000DDE9062305460E46FBF7CDF83A464346C0
:1052A000FBF7CCF80F462A463346009010461946C5
:1052B000FBF7C7F8824602462E4888460B46052172
:1052C0007844FCF797FD52464346FBF7BAF82A4666
:1052D0003346FBF7B3F880468A463B4628463146BC
:1052E000009AFBF7AEF83B46009AFBF703F80691ED
:1052F000009000224FF0804340465146FBF79BF858
:105300000F460C904246534628463146FBF799F823
:105310003B460C9AFBF707F9069B009AFBF78BF8C4
:105320002A463346FBF787F80022134BFBF786F833
:10533000054601980E4601EB00510815002810DCC7
:1053400028463146019AFBF784FAFCF73FFD042812
:1053500008BFFCF7BDFD28463146019AFBF779FAF4
:1053600005460B4618B02A4658462146BDE8F04D82
:10537000FBF767B8E42700000000F03F00B50246E5
:1053800012B94FF0FF3000BD50689168884201D1DA
:105390000020F8E750689168884203D2906851680D
:1053A000401AF0E7104600F014F851689368C91AE3
:1053B000401AE8E730B5044614B94FF0FF3030BD6D
:1053C000204600F006F805462046FFF7D7FF281ACA
:1053D000F5E7014611B94FF0FF3070470868FCE768
:1053E0002DE9F04104460F461646002514B9681E03
:1053F000BDE8F08117B94FF0FF30F9E76068A168A8
:10540000884214D22046FFF7B9FFB04201D9304696
:1054100002E02046FFF7B2FF054661682A4638469B
:10542000FAF77CFE6068284460602846E0E7204682
:10543000FFF7CFFF6168E268891A401AB0420AD9C3
:10544000354661682A463846FAF768FE606828449F
:1054500060602846CCE72046FFF7BBFF6168E26842
:10546000891A451A61682A463846FAF757FEE068F5
:105470006060721B79192046FFF7B2FF0544284689
:10548000B6E72DE9F04104460F461546002604B163
:105490001FB94FF0FF30BDE8F0812046FFF78AFFCB
:1054A000A84202D86FF00100F5E76068A168884261
:1054B0002AD82046FFF78DFFA168E268891A461AAC
:1054C000B54213D8A0682A463946FAF727FEA068E5
:1054D0002844A0602046FFF77CFFE1680844A168EB
:1054E000884201D1E068A0602846D4E7A06832462F
:1054F0003946FAF713FEE068A060AA1BB9192046E6
:10550000FFF7BFFF3044C6E7A0682A463946FAF7DE
:1055100005FEA0682844A0602846BCE72DE9F041BC
:1055200006460F46FBF7E8F9041E0D4618BF01209A
:10553000284320F00040C0F17F6000F1E040C00F40
:105540000ED0301C18BF0120384320F00040C0F1BD
:105550007F6000F1E040C00F04BF0120FCF7D0FCE9
:1055600020462946BDE8F08170B505460E46002468
:105570000DB9601E70BD00241BE0295D0F48FCF7CB
:105580000EFC00BF40210D48FCF7CDFB0028F9D0F0
:10559000022C0DD3285DFF280AD155210748FCF7BE
:1055A000FEFB00BF40210548FCF7BDFB0028F9D0F9
:1055B000641CB442E1D33046DCE700000044004004
:1055C000184840781849886016480078C86015481F
:1055D000C08908611348408848621448C07908B1FE
:1055E000012000E00020104948701048407908B1BF
:1055F000012000E000200C4908700C48007808B138
:10560000012000E00020084988700848C07808B1EF
:10561000012000E000200449C87005480068486087
:105620007047000068000020070500207C00002073
:10563000100000200000000000000000002F00000B
:1056400000000700070000147F147F1400242A7F45
:105650002A120062640813230036495522500000C4
:105660000503000000001C224100000041221C0034
:105670000014083E08140008083E0808000000A0B6
:1056800060000008080808080000606000000020B2
:1056900010080402003E5149453E0000427F400090
:1056A000004261514946002141454B310018141216
:1056B0007F10002745454539003C4A4949300001E3
:1056C0007109050300364949493600064949291E32
:1056D0000000363600000000563600000008142294
:1056E0004100001414141414000041221408000294
:1056F0000151090600324959513E007C1211127CB9
:10570000007F49494936003E41414122007F4141E5
:10571000221C007F49494941007F09090901003ED7
:105720004149497A007F0808087F0000417F410015
:10573000002040413F01007F08142241007F40408B
:105740004040007F020C027F007F0408107F003E73
:105750004141413E007F09090906003E4151215E59
:10576000007F091929460046494949310001017F56
:105770000101003F4040403F001F2040201F003FEC
:105780004038403F0063140814630007087008079E
:1057900000615149454300007F41410000552A55B1
:1057A0002A55000041417F0000040201020400402C
:1057B000404040400000010204000020545454784E
:1057C000007F48444438003844444420003844446E
:1057D000487F00385454541800087E09010200180C
:1057E000A4A4A47C007F080404780000447D400049
:1057F000004080847D00007F102844000000417F2D
:105800004000007C04180478007C08040478003808
:105810004444443800FC242424180018242418FC90
:10582000007C0804040800485454542000043F44F9
:105830004020003C4040207C001C2040201C003CBC
:105840004030403C004428102844001CA0A0A07C0C
:10585000004464544C441414141414140000000044
:1058600000000000000000000000FC00000000003C
:1058700002000000000C020C02000000000000000A
:1058800090D0BCD0BC900003000300001824FE445C
:105890008C000302070201001824D8B04C800003DA
:1058A00000010201C038E438E000010202010202F6
:1058B000080600000000000000000000000000F8E2
:1058C0000402000000010204000204F800000004C9
:1058D000020100009060F8609000000001000000EC
:1058E0002020FC202000000001000000000000003B
:1058F00000000806000000002020202020000000FA
:105900000000000000000000000000020000000095
:105910000080601C0200040300000000F80404047E
:10592000F8000102020201000008FC000000000271
:10593000030200001884442418000302020202003B
:1059400008042424D80001020202010040B088FCAF
:1059500080000000000302003C242424C400010253
:1059600002020100F824242CC000010202020100FE
:105970000C04E41C0400000003000000D8242424CC
:10598000D80001020202010038444444F800000338
:1059900002020100000010000000000002000000F0
:1059A00000002000000000000600000000205088D9
:1059B000040200000000010290909090900000000E
:1059C00000000000000204885020000201000000D6
:1059D0001804C4241800000002000000F804E49435
:1059E000F80001020202020000E09CF080000203C5
:1059F0000000030204FC2424D80002030202010078
:105A0000F80404040C0001020202010004FC040476
:105A1000F80002030202010004FC24740C000203DB
:105A20000202030004FC24740C00020302000000C4
:105A3000F0080444CC4000010202010004FC2020D4
:105A4000FC040203000003020404FC04040002023C
:105A500003020200000404FC040406040403000022
:105A600004FC24D00C0402030200030204FC040022
:105A70000000020302020203FC3CC03CFC000300E5
:105A80000300030004FC30C4FC0402030200030012
:105A9000F8040404F80001020202010004FC2424BA
:105AA0001800020302000000F8848404F8000102D8
:105AB0000207050004FC24649800020302000302AC
:105AC000182424448C000302020201000C04FC048C
:105AD0000C0000020302000004FC0000FC040001B2
